{
  "contractName": "ENCNFT",
  "abi": [
    {
      "inputs": [
        {
          "internalType": "address",
          "name": "_marketplace",
          "type": "address"
        }
      ],
      "stateMutability": "nonpayable",
      "type": "constructor"
    },
    {
      "anonymous": false,
      "inputs": [
        {
          "indexed": true,
          "internalType": "address",
          "name": "owner",
          "type": "address"
        },
        {
          "indexed": true,
          "internalType": "address",
          "name": "approved",
          "type": "address"
        },
        {
          "indexed": true,
          "internalType": "uint256",
          "name": "tokenId",
          "type": "uint256"
        }
      ],
      "name": "Approval",
      "type": "event"
    },
    {
      "anonymous": false,
      "inputs": [
        {
          "indexed": true,
          "internalType": "address",
          "name": "owner",
          "type": "address"
        },
        {
          "indexed": true,
          "internalType": "address",
          "name": "operator",
          "type": "address"
        },
        {
          "indexed": false,
          "internalType": "bool",
          "name": "approved",
          "type": "bool"
        }
      ],
      "name": "ApprovalForAll",
      "type": "event"
    },
    {
      "anonymous": false,
      "inputs": [
        {
          "indexed": false,
          "internalType": "uint256",
          "name": "",
          "type": "uint256"
        }
      ],
      "name": "NFTMinted",
      "type": "event"
    },
    {
      "anonymous": false,
      "inputs": [
        {
          "indexed": true,
          "internalType": "address",
          "name": "from",
          "type": "address"
        },
        {
          "indexed": true,
          "internalType": "address",
          "name": "to",
          "type": "address"
        },
        {
          "indexed": true,
          "internalType": "uint256",
          "name": "tokenId",
          "type": "uint256"
        }
      ],
      "name": "Transfer",
      "type": "event"
    },
    {
      "inputs": [
        {
          "internalType": "address",
          "name": "to",
          "type": "address"
        },
        {
          "internalType": "uint256",
          "name": "tokenId",
          "type": "uint256"
        }
      ],
      "name": "approve",
      "outputs": [],
      "stateMutability": "nonpayable",
      "type": "function"
    },
    {
      "inputs": [
        {
          "internalType": "address",
          "name": "owner",
          "type": "address"
        }
      ],
      "name": "balanceOf",
      "outputs": [
        {
          "internalType": "uint256",
          "name": "",
          "type": "uint256"
        }
      ],
      "stateMutability": "view",
      "type": "function"
    },
    {
      "inputs": [
        {
          "internalType": "uint256",
          "name": "tokenId",
          "type": "uint256"
        }
      ],
      "name": "getApproved",
      "outputs": [
        {
          "internalType": "address",
          "name": "",
          "type": "address"
        }
      ],
      "stateMutability": "view",
      "type": "function"
    },
    {
      "inputs": [
        {
          "internalType": "address",
          "name": "owner",
          "type": "address"
        },
        {
          "internalType": "address",
          "name": "operator",
          "type": "address"
        }
      ],
      "name": "isApprovedForAll",
      "outputs": [
        {
          "internalType": "bool",
          "name": "",
          "type": "bool"
        }
      ],
      "stateMutability": "view",
      "type": "function"
    },
    {
      "inputs": [],
      "name": "marketplace",
      "outputs": [
        {
          "internalType": "address",
          "name": "",
          "type": "address"
        }
      ],
      "stateMutability": "view",
      "type": "function"
    },
    {
      "inputs": [],
      "name": "name",
      "outputs": [
        {
          "internalType": "string",
          "name": "",
          "type": "string"
        }
      ],
      "stateMutability": "view",
      "type": "function"
    },
    {
      "inputs": [
        {
          "internalType": "uint256",
          "name": "tokenId",
          "type": "uint256"
        }
      ],
      "name": "ownerOf",
      "outputs": [
        {
          "internalType": "address",
          "name": "",
          "type": "address"
        }
      ],
      "stateMutability": "view",
      "type": "function"
    },
    {
      "inputs": [
        {
          "internalType": "address",
          "name": "from",
          "type": "address"
        },
        {
          "internalType": "address",
          "name": "to",
          "type": "address"
        },
        {
          "internalType": "uint256",
          "name": "tokenId",
          "type": "uint256"
        }
      ],
      "name": "safeTransferFrom",
      "outputs": [],
      "stateMutability": "nonpayable",
      "type": "function"
    },
    {
      "inputs": [
        {
          "internalType": "address",
          "name": "from",
          "type": "address"
        },
        {
          "internalType": "address",
          "name": "to",
          "type": "address"
        },
        {
          "internalType": "uint256",
          "name": "tokenId",
          "type": "uint256"
        },
        {
          "internalType": "bytes",
          "name": "data",
          "type": "bytes"
        }
      ],
      "name": "safeTransferFrom",
      "outputs": [],
      "stateMutability": "nonpayable",
      "type": "function"
    },
    {
      "inputs": [
        {
          "internalType": "address",
          "name": "operator",
          "type": "address"
        },
        {
          "internalType": "bool",
          "name": "approved",
          "type": "bool"
        }
      ],
      "name": "setApprovalForAll",
      "outputs": [],
      "stateMutability": "nonpayable",
      "type": "function"
    },
    {
      "inputs": [
        {
          "internalType": "bytes4",
          "name": "interfaceId",
          "type": "bytes4"
        }
      ],
      "name": "supportsInterface",
      "outputs": [
        {
          "internalType": "bool",
          "name": "",
          "type": "bool"
        }
      ],
      "stateMutability": "view",
      "type": "function"
    },
    {
      "inputs": [],
      "name": "symbol",
      "outputs": [
        {
          "internalType": "string",
          "name": "",
          "type": "string"
        }
      ],
      "stateMutability": "view",
      "type": "function"
    },
    {
      "inputs": [
        {
          "internalType": "uint256",
          "name": "tokenId",
          "type": "uint256"
        }
      ],
      "name": "tokenURI",
      "outputs": [
        {
          "internalType": "string",
          "name": "",
          "type": "string"
        }
      ],
      "stateMutability": "view",
      "type": "function"
    },
    {
      "inputs": [
        {
          "internalType": "address",
          "name": "from",
          "type": "address"
        },
        {
          "internalType": "address",
          "name": "to",
          "type": "address"
        },
        {
          "internalType": "uint256",
          "name": "tokenId",
          "type": "uint256"
        }
      ],
      "name": "transferFrom",
      "outputs": [],
      "stateMutability": "nonpayable",
      "type": "function"
    },
    {
      "inputs": [
        {
          "internalType": "string",
          "name": "_tokenURI",
          "type": "string"
        },
        {
          "internalType": "string",
          "name": "encryptionKey",
          "type": "string"
        }
      ],
      "name": "mint",
      "outputs": [
        {
          "internalType": "uint256",
          "name": "",
          "type": "uint256"
        }
      ],
      "stateMutability": "nonpayable",
      "type": "function"
    },
    {
      "inputs": [
        {
          "internalType": "address",
          "name": "_to",
          "type": "address"
        },
        {
          "internalType": "uint256",
          "name": "_tokenId",
          "type": "uint256"
        },
        {
          "internalType": "bytes",
          "name": "_data",
          "type": "bytes"
        }
      ],
      "name": "transferTokenWithEncryption",
      "outputs": [],
      "stateMutability": "nonpayable",
      "type": "function"
    },
    {
      "inputs": [
        {
          "internalType": "uint256",
          "name": "_tokenId",
          "type": "uint256"
        }
      ],
      "name": "getTokenInfoLastOwner",
      "outputs": [
        {
          "internalType": "address",
          "name": "owner",
          "type": "address"
        },
        {
          "internalType": "string",
          "name": "encData",
          "type": "string"
        }
      ],
      "stateMutability": "view",
      "type": "function"
    },
    {
      "inputs": [
        {
          "internalType": "address",
          "name": "owner",
          "type": "address"
        }
      ],
      "name": "getIdsByOwner",
      "outputs": [
        {
          "internalType": "uint256[]",
          "name": "",
          "type": "uint256[]"
        }
      ],
      "stateMutability": "view",
      "type": "function"
    }
  ],
  "bytecode": "0x60806040523480156200001157600080fd5b5060405162001e2f38038062001e2f833981016040819052620000349162000169565b604080518082018252600b81526a115b98dbd919590813919560aa1b6020808301918252835180850190945260048452631153919560e21b9084015281519192916200008391600091620000c3565b50805162000099906001906020840190620000c3565b5050600a80546001600160a01b0319166001600160a01b03939093169290921790915550620001d7565b828054620000d1906200019b565b90600052602060002090601f016020900481019282620000f5576000855562000140565b82601f106200011057805160ff191683800117855562000140565b8280016001018555821562000140579182015b828111156200014057825182559160200191906001019062000123565b506200014e92915062000152565b5090565b5b808211156200014e576000815560010162000153565b6000602082840312156200017c57600080fd5b81516001600160a01b03811681146200019457600080fd5b9392505050565b600181811c90821680620001b057607f821691505b602082108103620001d157634e487b7160e01b600052602260045260246000fd5b50919050565b611c4880620001e76000396000f3fe608060405234801561001057600080fd5b50600436106101365760003560e01c80638aa0fdad116100b2578063b88d4fde11610081578063c87b56dd11610066578063c87b56dd14610299578063e793810f146102ac578063e985e9c5146102cd57600080fd5b8063b88d4fde14610273578063c215268c1461028657600080fd5b80638aa0fdad1461023257806395d89b4114610245578063a22cb4651461024d578063abc8c7af1461026057600080fd5b80630e2821661161010957806342842e0e116100ee57806342842e0e146101eb5780636352211e146101fe57806370a082311461021157600080fd5b80630e282166146101b857806323b872dd146101d857600080fd5b806301ffc9a71461013b57806306fdde0314610163578063081812fc14610178578063095ea7b3146101a3575b600080fd5b61014e61014936600461173c565b610309565b60405190151581526020015b60405180910390f35b61016b61035b565b60405161015a91906117b1565b61018b6101863660046117c4565b6103ed565b6040516001600160a01b03909116815260200161015a565b6101b66101b13660046117f9565b610414565b005b6101cb6101c6366004611823565b61052e565b60405161015a919061183e565b6101b66101e6366004611882565b61059a565b6101b66101f9366004611882565b610611565b61018b61020c3660046117c4565b61062c565b61022461021f366004611823565b610691565b60405190815260200161015a565b610224610240366004611961565b61072b565b61016b610851565b6101b661025b3660046119c5565b610860565b600a5461018b906001600160a01b031681565b6101b6610281366004611a01565b61086f565b6101b6610294366004611a69565b6108ed565b61016b6102a73660046117c4565b6109ff565b6102bf6102ba3660046117c4565b610b0f565b60405161015a929190611ac0565b61014e6102db366004611ae2565b6001600160a01b03918216600090815260056020908152604080832093909416825291909152205460ff1690565b60006001600160e01b031982166380ac58cd60e01b148061033a57506001600160e01b03198216635b5e139f60e01b145b8061035557506301ffc9a760e01b6001600160e01b03198316145b92915050565b60606000805461036a90611b15565b80601f016020809104026020016040519081016040528092919081815260200182805461039690611b15565b80156103e35780601f106103b8576101008083540402835291602001916103e3565b820191906000526020600020905b8154815290600101906020018083116103c657829003601f168201915b5050505050905090565b60006103f882610c00565b506000908152600460205260409020546001600160a01b031690565b600061041f8261062c565b9050806001600160a01b0316836001600160a01b0316036104915760405162461bcd60e51b815260206004820152602160248201527f4552433732313a20617070726f76616c20746f2063757272656e74206f776e656044820152603960f91b60648201526084015b60405180910390fd5b336001600160a01b03821614806104ad57506104ad81336102db565b61051f5760405162461bcd60e51b815260206004820152603d60248201527f4552433732313a20617070726f76652063616c6c6572206973206e6f7420746f60448201527f6b656e206f776e6572206f7220617070726f76656420666f7220616c6c0000006064820152608401610488565b6105298383610c67565b505050565b6001600160a01b03811660009081526009602090815260409182902080548351818402810184019094528084526060939283018282801561058e57602002820191906000526020600020905b81548152602001906001019080831161057a575b50505050509050919050565b6105a43382610cd5565b6106065760405162461bcd60e51b815260206004820152602d60248201527f4552433732313a2063616c6c6572206973206e6f7420746f6b656e206f776e6560448201526c1c881bdc88185c1c1c9bdd9959609a1b6064820152608401610488565b610529838383610d53565b6105298383836040518060200160405280600081525061086f565b6000818152600260205260408120546001600160a01b0316806103555760405162461bcd60e51b815260206004820152601860248201527f4552433732313a20696e76616c696420746f6b656e20494400000000000000006044820152606401610488565b60006001600160a01b03821661070f5760405162461bcd60e51b815260206004820152602960248201527f4552433732313a2061646472657373207a65726f206973206e6f74206120766160448201527f6c6964206f776e657200000000000000000000000000000000000000000000006064820152608401610488565b506001600160a01b031660009081526003602052604090205490565b600061073b600780546001019055565b600061074660075490565b90506107523382610f33565b61075c8185610f4d565b6107663082610c67565b600a5461077d906001600160a01b03166001610860565b6000818152600860209081526040808320815180830190925233825281830187815281546001808201845592865294849020835160029096020180546001600160a01b0319166001600160a01b039096169590951785555180519294936107ea939285019291019061168d565b505033600090815260096020908152604080832080546001810182559084529190922001839055517fd9dc24857f317ed9abbbb42e920ede0104231eb1d3d70236a74887ffaf15986891506108429083815260200190565b60405180910390a19392505050565b60606001805461036a90611b15565b61086b338383610ff6565b5050565b6108793383610cd5565b6108db5760405162461bcd60e51b815260206004820152602d60248201527f4552433732313a2063616c6c6572206973206e6f7420746f6b656e206f776e6560448201526c1c881bdc88185c1c1c9bdd9959609a1b6064820152608401610488565b6108e7848484846110c4565b50505050565b6108f73383610cd5565b6109435760405162461bcd60e51b815260206004820152601560248201527f4e6f74206f776e6572206f7220617070726f76656400000000000000000000006044820152606401610488565b600061094e8361062c565b905061095c8185858561086f565b600083815260086020908152604080832081518083019092526001600160a01b03888116835282840187815282546001808201855593875295859020845160029097020180546001600160a01b03191696909216959095178155935180519294936109cd939285019291019061168d565b505050506001600160a01b03929092166000908152600960209081526040822080546001810182559083529120015550565b6060610a0a82610c00565b60008281526006602052604081208054610a2390611b15565b80601f0160208091040260200160405190810160405280929190818152602001828054610a4f90611b15565b8015610a9c5780601f10610a7157610100808354040283529160200191610a9c565b820191906000526020600020905b815481529060010190602001808311610a7f57829003601f168201915b505050505090506000610aba60408051602081019091526000815290565b90508051600003610acc575092915050565b815115610afe578082604051602001610ae6929190611b4f565b60405160208183030381529060405292505050919050565b610b0784611142565b949350505050565b600081815260086020526040812080546060919083908290610b3390600190611b7e565b81548110610b4357610b43611ba3565b6000918252602090912060029091020180546001820180549293506001600160a01b03909116918190610b7590611b15565b80601f0160208091040260200160405190810160405280929190818152602001828054610ba190611b15565b8015610bee5780601f10610bc357610100808354040283529160200191610bee565b820191906000526020600020905b815481529060010190602001808311610bd157829003601f168201915b50505050509050935093505050915091565b6000818152600260205260409020546001600160a01b0316610c645760405162461bcd60e51b815260206004820152601860248201527f4552433732313a20696e76616c696420746f6b656e20494400000000000000006044820152606401610488565b50565b600081815260046020526040902080546001600160a01b0319166001600160a01b0384169081179091558190610c9c8261062c565b6001600160a01b03167f8c5be1e5ebec7d5bd14f71427d1e84f3dd0314c0f7b2291e5b200ac8c7c3b92560405160405180910390a45050565b600080610ce18361062c565b9050806001600160a01b0316846001600160a01b03161480610d2857506001600160a01b0380821660009081526005602090815260408083209388168352929052205460ff165b80610b075750836001600160a01b0316610d41846103ed565b6001600160a01b031614949350505050565b826001600160a01b0316610d668261062c565b6001600160a01b031614610dca5760405162461bcd60e51b815260206004820152602560248201527f4552433732313a207472616e736665722066726f6d20696e636f72726563742060448201526437bbb732b960d91b6064820152608401610488565b6001600160a01b038216610e2c5760405162461bcd60e51b8152602060048201526024808201527f4552433732313a207472616e7366657220746f20746865207a65726f206164646044820152637265737360e01b6064820152608401610488565b826001600160a01b0316610e3f8261062c565b6001600160a01b031614610ea35760405162461bcd60e51b815260206004820152602560248201527f4552433732313a207472616e736665722066726f6d20696e636f72726563742060448201526437bbb732b960d91b6064820152608401610488565b600081815260046020908152604080832080546001600160a01b03199081169091556001600160a01b0387811680865260038552838620805460001901905590871680865283862080546001019055868652600290945282852080549092168417909155905184937fddf252ad1be2c89b69c2b068fc378daa952ba7f163c4a11628f55a4df523b3ef91a4505050565b61086b8282604051806020016040528060008152506111b6565b6000828152600260205260409020546001600160a01b0316610fd75760405162461bcd60e51b815260206004820152602e60248201527f45524337323155524953746f726167653a2055524920736574206f66206e6f6e60448201527f6578697374656e7420746f6b656e0000000000000000000000000000000000006064820152608401610488565b600082815260066020908152604090912082516105299284019061168d565b816001600160a01b0316836001600160a01b0316036110575760405162461bcd60e51b815260206004820152601960248201527f4552433732313a20617070726f766520746f2063616c6c6572000000000000006044820152606401610488565b6001600160a01b03838116600081815260056020908152604080832094871680845294825291829020805460ff191686151590811790915591519182527f17307eab39ab6107e8899845ad3d59bd9653f200f220920489ca2b5937696c31910160405180910390a3505050565b6110cf848484610d53565b6110db84848484611234565b6108e75760405162461bcd60e51b815260206004820152603260248201527f4552433732313a207472616e7366657220746f206e6f6e20455243373231526560448201527131b2b4bb32b91034b6b83632b6b2b73a32b960711b6064820152608401610488565b606061114d82610c00565b600061116460408051602081019091526000815290565b9050600081511161118457604051806020016040528060008152506111af565b8061118e84611380565b60405160200161119f929190611b4f565b6040516020818303038152906040525b9392505050565b6111c08383611420565b6111cd6000848484611234565b6105295760405162461bcd60e51b815260206004820152603260248201527f4552433732313a207472616e7366657220746f206e6f6e20455243373231526560448201527131b2b4bb32b91034b6b83632b6b2b73a32b960711b6064820152608401610488565b60006001600160a01b0384163b1561137557604051630a85bd0160e11b81526001600160a01b0385169063150b7a0290611278903390899088908890600401611bb9565b6020604051808303816000875af19250505080156112b3575060408051601f3d908101601f191682019092526112b091810190611bf5565b60015b61135b573d8080156112e1576040519150601f19603f3d011682016040523d82523d6000602084013e6112e6565b606091505b5080516000036113535760405162461bcd60e51b815260206004820152603260248201527f4552433732313a207472616e7366657220746f206e6f6e20455243373231526560448201527131b2b4bb32b91034b6b83632b6b2b73a32b960711b6064820152608401610488565b805181602001fd5b6001600160e01b031916630a85bd0160e11b149050610b07565b506001949350505050565b6060600061138d836115ab565b600101905060008167ffffffffffffffff8111156113ad576113ad6118be565b6040519080825280601f01601f1916602001820160405280156113d7576020820181803683370190505b5090508181016020015b600019017f3031323334353637383961626364656600000000000000000000000000000000600a86061a8153600a85049450846113e157509392505050565b6001600160a01b0382166114765760405162461bcd60e51b815260206004820181905260248201527f4552433732313a206d696e7420746f20746865207a65726f20616464726573736044820152606401610488565b6000818152600260205260409020546001600160a01b0316156114db5760405162461bcd60e51b815260206004820152601c60248201527f4552433732313a20746f6b656e20616c7265616479206d696e746564000000006044820152606401610488565b6000818152600260205260409020546001600160a01b0316156115405760405162461bcd60e51b815260206004820152601c60248201527f4552433732313a20746f6b656e20616c7265616479206d696e746564000000006044820152606401610488565b6001600160a01b038216600081815260036020908152604080832080546001019055848352600290915280822080546001600160a01b0319168417905551839291907fddf252ad1be2c89b69c2b068fc378daa952ba7f163c4a11628f55a4df523b3ef908290a45050565b6000807a184f03e93ff9f4daa797ed6e38ed64bf6a1f01000000000000000083106115f4577a184f03e93ff9f4daa797ed6e38ed64bf6a1f010000000000000000830492506040015b6d04ee2d6d415b85acef81000000008310611620576d04ee2d6d415b85acef8100000000830492506020015b662386f26fc10000831061163e57662386f26fc10000830492506010015b6305f5e1008310611656576305f5e100830492506008015b612710831061166a57612710830492506004015b6064831061167c576064830492506002015b600a83106103555760010192915050565b82805461169990611b15565b90600052602060002090601f0160209004810192826116bb5760008555611701565b82601f106116d457805160ff1916838001178555611701565b82800160010185558215611701579182015b828111156117015782518255916020019190600101906116e6565b5061170d929150611711565b5090565b5b8082111561170d5760008155600101611712565b6001600160e01b031981168114610c6457600080fd5b60006020828403121561174e57600080fd5b81356111af81611726565b60005b8381101561177457818101518382015260200161175c565b838111156108e75750506000910152565b6000815180845261179d816020860160208601611759565b601f01601f19169290920160200192915050565b6020815260006111af6020830184611785565b6000602082840312156117d657600080fd5b5035919050565b80356001600160a01b03811681146117f457600080fd5b919050565b6000806040838503121561180c57600080fd5b611815836117dd565b946020939093013593505050565b60006020828403121561183557600080fd5b6111af826117dd565b6020808252825182820181905260009190848201906040850190845b818110156118765783518352928401929184019160010161185a565b50909695505050505050565b60008060006060848603121561189757600080fd5b6118a0846117dd565b92506118ae602085016117dd565b9150604084013590509250925092565b634e487b7160e01b600052604160045260246000fd5b600082601f8301126118e557600080fd5b813567ffffffffffffffff80821115611900576119006118be565b604051601f8301601f19908116603f01168101908282118183101715611928576119286118be565b8160405283815286602085880101111561194157600080fd5b836020870160208301376000602085830101528094505050505092915050565b6000806040838503121561197457600080fd5b823567ffffffffffffffff8082111561198c57600080fd5b611998868387016118d4565b935060208501359150808211156119ae57600080fd5b506119bb858286016118d4565b9150509250929050565b600080604083850312156119d857600080fd5b6119e1836117dd565b9150602083013580151581146119f657600080fd5b809150509250929050565b60008060008060808587031215611a1757600080fd5b611a20856117dd565b9350611a2e602086016117dd565b925060408501359150606085013567ffffffffffffffff811115611a5157600080fd5b611a5d878288016118d4565b91505092959194509250565b600080600060608486031215611a7e57600080fd5b611a87846117dd565b925060208401359150604084013567ffffffffffffffff811115611aaa57600080fd5b611ab6868287016118d4565b9150509250925092565b6001600160a01b0383168152604060208201526000610b076040830184611785565b60008060408385031215611af557600080fd5b611afe836117dd565b9150611b0c602084016117dd565b90509250929050565b600181811c90821680611b2957607f821691505b602082108103611b4957634e487b7160e01b600052602260045260246000fd5b50919050565b60008351611b61818460208801611759565b835190830190611b75818360208801611759565b01949350505050565b600082821015611b9e57634e487b7160e01b600052601160045260246000fd5b500390565b634e487b7160e01b600052603260045260246000fd5b60006001600160a01b03808716835280861660208401525083604083015260806060830152611beb6080830184611785565b9695505050505050565b600060208284031215611c0757600080fd5b81516111af8161172656fea2646970667358221220072586cc35d40805f1938863d4e4bfbf37a3a511dad982f96e449528fca01b3864736f6c634300080d0033",
  "immutableReferences": {},
  "source": "// SPDX-License-Identifier: MIT\npragma solidity ^0.8.13;\n\nimport \"@openzeppelin/contracts/token/ERC721/ERC721.sol\";\nimport \"@openzeppelin/contracts/token/ERC721/extensions/ERC721URIStorage.sol\";\nimport \"@openzeppelin/contracts/utils/Counters.sol\";\nimport \"hardhat/console.sol\"; \n\ncontract ENCNFT is ERC721URIStorage {\n    using Counters for Counters.Counter;\n    Counters.Counter private _tokenIds;\n\n    struct EncryptData {\n        address currentOwner;\n        string encryptKeyForOwner;\n    }\n\n    mapping(uint256 => EncryptData[]) private _tokenHistory;\n    mapping(address => uint256[]) private _tokensByOwner;\n\n    event NFTMinted(uint256);\n    address public marketplace;\n\n    constructor(address _marketplace) ERC721(\"Encoded NFT\", \"ENFT\") {\n        marketplace = _marketplace;\n    }\n\n    function mint(string memory _tokenURI, string memory encryptionKey)\n        external  returns (uint256)\n    {\n        _tokenIds.increment();\n        uint256 newTokenId = _tokenIds.current(); \n        _safeMint(msg.sender, newTokenId); \n        _setTokenURI(newTokenId, _tokenURI); \n         _approve(address(this), newTokenId);\n        setApprovalForAll(marketplace, true); \n        _tokenHistory[newTokenId].push(\n            EncryptData(msg.sender, encryptionKey)\n        );\n        _tokensByOwner[msg.sender].push(newTokenId);\n        emit NFTMinted(newTokenId);\n        return newTokenId;\n    }\n\n    function transferTokenWithEncryption( \n        address _to,\n        uint256 _tokenId,\n        bytes memory _data\n    ) external { \n        require(_isApprovedOrOwner(msg.sender, _tokenId), \"Not owner or approved\");\n        address currentOwner = ownerOf(_tokenId);\n        safeTransferFrom(currentOwner, _to, _tokenId, _data);\n        _tokenHistory[_tokenId].push(EncryptData(_to, string(_data)));\n        _tokensByOwner[_to].push(_tokenId);\n    }\n\n    function getTokenInfoLastOwner(uint256 _tokenId)\n        external\n        view\n        returns (address owner, string memory encData)\n    {\n        EncryptData[] storage allHistoryTokenInfo = _tokenHistory[\n            _tokenId\n        ];\n        EncryptData storage lastOwnerInfo = allHistoryTokenInfo[\n            allHistoryTokenInfo.length - 1\n        ];\n        return (lastOwnerInfo.currentOwner, lastOwnerInfo.encryptKeyForOwner);\n    }\n\n    function getIdsByOwner(address owner)\n        external\n        view\n        returns (uint256[] memory)\n    {\n        return _tokensByOwner[owner];\n    }\n}\n",
  "sourcePath": "/home/dev/Documents/MY/HACKATHON/FANTOM/PromptMarketplace/contracts/ethereum/EncNft.sol",
  "compiler": {
    "name": "solc",
    "version": "0.8.13+commit.abaa5c0e.Emscripten.clang"
  },
  "schemaVersion": "3.4.10",
  "updatedAt": "2023-03-08T09:23:42.822Z",
  "devdoc": {
    "kind": "dev",
    "methods": {
      "approve(address,uint256)": {
        "details": "See {IERC721-approve}."
      },
      "balanceOf(address)": {
        "details": "See {IERC721-balanceOf}."
      },
      "getApproved(uint256)": {
        "details": "See {IERC721-getApproved}."
      },
      "isApprovedForAll(address,address)": {
        "details": "See {IERC721-isApprovedForAll}."
      },
      "name()": {
        "details": "See {IERC721Metadata-name}."
      },
      "ownerOf(uint256)": {
        "details": "See {IERC721-ownerOf}."
      },
      "safeTransferFrom(address,address,uint256)": {
        "details": "See {IERC721-safeTransferFrom}."
      },
      "safeTransferFrom(address,address,uint256,bytes)": {
        "details": "See {IERC721-safeTransferFrom}."
      },
      "setApprovalForAll(address,bool)": {
        "details": "See {IERC721-setApprovalForAll}."
      },
      "supportsInterface(bytes4)": {
        "details": "See {IERC165-supportsInterface}."
      },
      "symbol()": {
        "details": "See {IERC721Metadata-symbol}."
      },
      "tokenURI(uint256)": {
        "details": "See {IERC721Metadata-tokenURI}."
      },
      "transferFrom(address,address,uint256)": {
        "details": "See {IERC721-transferFrom}."
      }
    },
    "version": 1
  },
  "userdoc": {
    "kind": "user",
    "methods": {},
    "version": 1
  }
}