{
  "contractName": "Marketplace",
  "abi": [
    {
      "inputs": [],
      "stateMutability": "nonpayable",
      "type": "constructor"
    },
    {
      "anonymous": false,
      "inputs": [
        {
          "indexed": false,
          "internalType": "uint256",
          "name": "idToken",
          "type": "uint256"
        },
        {
          "indexed": false,
          "internalType": "address",
          "name": "buyerAddress",
          "type": "address"
        },
        {
          "indexed": false,
          "internalType": "uint256",
          "name": "bet",
          "type": "uint256"
        }
      ],
      "name": "BuyerMadeBet",
      "type": "event"
    },
    {
      "anonymous": false,
      "inputs": [
        {
          "indexed": false,
          "internalType": "uint256",
          "name": "idToken",
          "type": "uint256"
        },
        {
          "indexed": false,
          "internalType": "address",
          "name": "buyerAddress",
          "type": "address"
        },
        {
          "indexed": false,
          "internalType": "uint256",
          "name": "bet",
          "type": "uint256"
        }
      ],
      "name": "BuyerWithdrewBet",
      "type": "event"
    },
    {
      "anonymous": false,
      "inputs": [
        {
          "indexed": false,
          "internalType": "uint256",
          "name": "feeValue",
          "type": "uint256"
        },
        {
          "indexed": false,
          "internalType": "uint256",
          "name": "nftId",
          "type": "uint256"
        }
      ],
      "name": "FeeReceived",
      "type": "event"
    },
    {
      "anonymous": false,
      "inputs": [
        {
          "indexed": false,
          "internalType": "address",
          "name": "nftContract",
          "type": "address"
        },
        {
          "indexed": false,
          "internalType": "uint256",
          "name": "tokenId",
          "type": "uint256"
        },
        {
          "indexed": false,
          "internalType": "address",
          "name": "seller",
          "type": "address"
        },
        {
          "indexed": false,
          "internalType": "address",
          "name": "owner",
          "type": "address"
        },
        {
          "indexed": false,
          "internalType": "uint256",
          "name": "price",
          "type": "uint256"
        }
      ],
      "name": "NFTListed",
      "type": "event"
    },
    {
      "anonymous": false,
      "inputs": [
        {
          "indexed": false,
          "internalType": "address",
          "name": "nftContract",
          "type": "address"
        },
        {
          "indexed": false,
          "internalType": "uint256",
          "name": "tokenId",
          "type": "uint256"
        },
        {
          "indexed": false,
          "internalType": "address",
          "name": "seller",
          "type": "address"
        },
        {
          "indexed": false,
          "internalType": "address",
          "name": "owner",
          "type": "address"
        },
        {
          "indexed": false,
          "internalType": "uint256",
          "name": "price",
          "type": "uint256"
        }
      ],
      "name": "NFTSold",
      "type": "event"
    },
    {
      "anonymous": false,
      "inputs": [
        {
          "indexed": false,
          "internalType": "uint256",
          "name": "idToken",
          "type": "uint256"
        },
        {
          "indexed": false,
          "internalType": "address",
          "name": "buyerAddress",
          "type": "address"
        }
      ],
      "name": "NewOwner",
      "type": "event"
    },
    {
      "anonymous": false,
      "inputs": [
        {
          "indexed": false,
          "internalType": "uint256",
          "name": "idToken",
          "type": "uint256"
        },
        {
          "indexed": false,
          "internalType": "address",
          "name": "buyerAddress",
          "type": "address"
        },
        {
          "indexed": false,
          "internalType": "string",
          "name": "message",
          "type": "string"
        }
      ],
      "name": "TokenForSell",
      "type": "event"
    },
    {
      "anonymous": false,
      "inputs": [
        {
          "indexed": false,
          "internalType": "address",
          "name": "sender",
          "type": "address"
        },
        {
          "indexed": false,
          "internalType": "uint256",
          "name": "value",
          "type": "uint256"
        }
      ],
      "name": "ValueReceived",
      "type": "event"
    },
    {
      "anonymous": false,
      "inputs": [
        {
          "indexed": false,
          "internalType": "uint256",
          "name": "idToken",
          "type": "uint256"
        },
        {
          "indexed": false,
          "internalType": "address",
          "name": "sellerAddress",
          "type": "address"
        },
        {
          "indexed": false,
          "internalType": "uint256",
          "name": "sum",
          "type": "uint256"
        }
      ],
      "name": "sellerWithdrewSum",
      "type": "event"
    },
    {
      "inputs": [],
      "name": "LISTING_FEE",
      "outputs": [
        {
          "internalType": "uint256",
          "name": "",
          "type": "uint256"
        }
      ],
      "stateMutability": "view",
      "type": "function"
    },
    {
      "inputs": [
        {
          "internalType": "uint256",
          "name": "",
          "type": "uint256"
        },
        {
          "internalType": "uint256",
          "name": "",
          "type": "uint256"
        }
      ],
      "name": "buyersBoard",
      "outputs": [
        {
          "internalType": "address",
          "name": "buyerAddress",
          "type": "address"
        },
        {
          "internalType": "string",
          "name": "buyerPublicKey",
          "type": "string"
        },
        {
          "internalType": "uint256",
          "name": "buyerBet",
          "type": "uint256"
        },
        {
          "internalType": "string",
          "name": "goalOfPurchase",
          "type": "string"
        }
      ],
      "stateMutability": "view",
      "type": "function"
    },
    {
      "inputs": [
        {
          "internalType": "uint256",
          "name": "",
          "type": "uint256"
        },
        {
          "internalType": "uint256",
          "name": "",
          "type": "uint256"
        }
      ],
      "name": "sellersBoard",
      "outputs": [
        {
          "internalType": "address",
          "name": "sellerAddress",
          "type": "address"
        },
        {
          "internalType": "uint256",
          "name": "deadline",
          "type": "uint256"
        },
        {
          "internalType": "uint256",
          "name": "sellerSum",
          "type": "uint256"
        }
      ],
      "stateMutability": "view",
      "type": "function"
    },
    {
      "stateMutability": "payable",
      "type": "receive"
    },
    {
      "inputs": [
        {
          "internalType": "address",
          "name": "_nftContract",
          "type": "address"
        }
      ],
      "name": "setNFTContract",
      "outputs": [],
      "stateMutability": "nonpayable",
      "type": "function"
    },
    {
      "inputs": [
        {
          "internalType": "address",
          "name": "_nftContract",
          "type": "address"
        },
        {
          "internalType": "uint256",
          "name": "_tokenId",
          "type": "uint256"
        },
        {
          "internalType": "uint256",
          "name": "_price",
          "type": "uint256"
        }
      ],
      "name": "listNft",
      "outputs": [],
      "stateMutability": "payable",
      "type": "function"
    },
    {
      "inputs": [],
      "name": "withdraw",
      "outputs": [],
      "stateMutability": "nonpayable",
      "type": "function"
    },
    {
      "inputs": [],
      "name": "getListingFee",
      "outputs": [
        {
          "internalType": "uint256",
          "name": "",
          "type": "uint256"
        }
      ],
      "stateMutability": "view",
      "type": "function"
    },
    {
      "inputs": [],
      "name": "getListedNfts",
      "outputs": [
        {
          "components": [
            {
              "internalType": "address",
              "name": "nftContract",
              "type": "address"
            },
            {
              "internalType": "uint256",
              "name": "tokenId",
              "type": "uint256"
            },
            {
              "internalType": "address payable",
              "name": "seller",
              "type": "address"
            },
            {
              "internalType": "address payable",
              "name": "owner",
              "type": "address"
            },
            {
              "internalType": "uint256",
              "name": "price",
              "type": "uint256"
            },
            {
              "internalType": "bool",
              "name": "listed",
              "type": "bool"
            }
          ],
          "internalType": "struct Marketplace.NFT[]",
          "name": "",
          "type": "tuple[]"
        }
      ],
      "stateMutability": "view",
      "type": "function"
    },
    {
      "inputs": [],
      "name": "getMyNfts",
      "outputs": [
        {
          "components": [
            {
              "internalType": "address",
              "name": "nftContract",
              "type": "address"
            },
            {
              "internalType": "uint256",
              "name": "tokenId",
              "type": "uint256"
            },
            {
              "internalType": "address payable",
              "name": "seller",
              "type": "address"
            },
            {
              "internalType": "address payable",
              "name": "owner",
              "type": "address"
            },
            {
              "internalType": "uint256",
              "name": "price",
              "type": "uint256"
            },
            {
              "internalType": "bool",
              "name": "listed",
              "type": "bool"
            }
          ],
          "internalType": "struct Marketplace.NFT[]",
          "name": "",
          "type": "tuple[]"
        }
      ],
      "stateMutability": "view",
      "type": "function"
    },
    {
      "inputs": [
        {
          "internalType": "uint256",
          "name": "nftId",
          "type": "uint256"
        }
      ],
      "name": "getMyListedNft",
      "outputs": [
        {
          "components": [
            {
              "internalType": "address",
              "name": "nftContract",
              "type": "address"
            },
            {
              "internalType": "uint256",
              "name": "tokenId",
              "type": "uint256"
            },
            {
              "internalType": "address payable",
              "name": "seller",
              "type": "address"
            },
            {
              "internalType": "address payable",
              "name": "owner",
              "type": "address"
            },
            {
              "internalType": "uint256",
              "name": "price",
              "type": "uint256"
            },
            {
              "internalType": "bool",
              "name": "listed",
              "type": "bool"
            }
          ],
          "internalType": "struct Marketplace.NFT",
          "name": "",
          "type": "tuple"
        }
      ],
      "stateMutability": "view",
      "type": "function"
    },
    {
      "inputs": [],
      "name": "getMyListedNfts",
      "outputs": [
        {
          "components": [
            {
              "internalType": "address",
              "name": "nftContract",
              "type": "address"
            },
            {
              "internalType": "uint256",
              "name": "tokenId",
              "type": "uint256"
            },
            {
              "internalType": "address payable",
              "name": "seller",
              "type": "address"
            },
            {
              "internalType": "address payable",
              "name": "owner",
              "type": "address"
            },
            {
              "internalType": "uint256",
              "name": "price",
              "type": "uint256"
            },
            {
              "internalType": "bool",
              "name": "listed",
              "type": "bool"
            }
          ],
          "internalType": "struct Marketplace.NFT[]",
          "name": "",
          "type": "tuple[]"
        }
      ],
      "stateMutability": "view",
      "type": "function"
    },
    {
      "inputs": [
        {
          "internalType": "uint256",
          "name": "idToken",
          "type": "uint256"
        },
        {
          "internalType": "string",
          "name": "buyerPublicKey",
          "type": "string"
        },
        {
          "internalType": "address",
          "name": "buyerAddress",
          "type": "address"
        },
        {
          "internalType": "string",
          "name": "goalPurchase",
          "type": "string"
        }
      ],
      "name": "makeBet",
      "outputs": [],
      "stateMutability": "payable",
      "type": "function"
    },
    {
      "inputs": [
        {
          "internalType": "uint256",
          "name": "idToken",
          "type": "uint256"
        }
      ],
      "name": "getSellerById",
      "outputs": [
        {
          "components": [
            {
              "internalType": "address",
              "name": "sellerAddress",
              "type": "address"
            },
            {
              "internalType": "uint256",
              "name": "deadline",
              "type": "uint256"
            },
            {
              "internalType": "uint256",
              "name": "sellerSum",
              "type": "uint256"
            }
          ],
          "internalType": "struct Marketplace.SellerData[]",
          "name": "",
          "type": "tuple[]"
        }
      ],
      "stateMutability": "view",
      "type": "function"
    },
    {
      "inputs": [
        {
          "internalType": "uint256",
          "name": "idToken",
          "type": "uint256"
        }
      ],
      "name": "getCountSellers",
      "outputs": [
        {
          "internalType": "uint256",
          "name": "",
          "type": "uint256"
        }
      ],
      "stateMutability": "view",
      "type": "function"
    },
    {
      "inputs": [
        {
          "internalType": "uint256",
          "name": "idToken",
          "type": "uint256"
        }
      ],
      "name": "getCountBuyers",
      "outputs": [
        {
          "internalType": "uint256",
          "name": "",
          "type": "uint256"
        }
      ],
      "stateMutability": "view",
      "type": "function"
    },
    {
      "inputs": [
        {
          "internalType": "uint256",
          "name": "idToken",
          "type": "uint256"
        }
      ],
      "name": "getBuyersById",
      "outputs": [
        {
          "components": [
            {
              "internalType": "address",
              "name": "buyerAddress",
              "type": "address"
            },
            {
              "internalType": "string",
              "name": "buyerPublicKey",
              "type": "string"
            },
            {
              "internalType": "uint256",
              "name": "buyerBet",
              "type": "uint256"
            },
            {
              "internalType": "string",
              "name": "goalOfPurchase",
              "type": "string"
            }
          ],
          "internalType": "struct Marketplace.BuyerData[]",
          "name": "",
          "type": "tuple[]"
        }
      ],
      "stateMutability": "view",
      "type": "function"
    },
    {
      "inputs": [
        {
          "internalType": "uint256",
          "name": "idToken",
          "type": "uint256"
        }
      ],
      "name": "buyerWithdrawBet",
      "outputs": [],
      "stateMutability": "nonpayable",
      "type": "function"
    },
    {
      "inputs": [
        {
          "internalType": "uint256",
          "name": "idToken",
          "type": "uint256"
        }
      ],
      "name": "sellerWithdrawSum",
      "outputs": [],
      "stateMutability": "nonpayable",
      "type": "function"
    },
    {
      "inputs": [
        {
          "internalType": "uint256",
          "name": "idToken",
          "type": "uint256"
        },
        {
          "internalType": "address",
          "name": "buyerAddress",
          "type": "address"
        },
        {
          "internalType": "bytes",
          "name": "data",
          "type": "bytes"
        }
      ],
      "name": "acceptRateAndTransferToken",
      "outputs": [],
      "stateMutability": "nonpayable",
      "type": "function"
    },
    {
      "inputs": [
        {
          "internalType": "uint256",
          "name": "idToken",
          "type": "uint256"
        },
        {
          "internalType": "address",
          "name": "buyerAddress",
          "type": "address"
        }
      ],
      "name": "getBuyerIndex",
      "outputs": [
        {
          "internalType": "uint256",
          "name": "buyerIndex",
          "type": "uint256"
        }
      ],
      "stateMutability": "view",
      "type": "function"
    },
    {
      "inputs": [
        {
          "internalType": "uint256",
          "name": "idToken",
          "type": "uint256"
        },
        {
          "internalType": "address",
          "name": "sellerAddress",
          "type": "address"
        }
      ],
      "name": "getSellerIndex",
      "outputs": [
        {
          "internalType": "uint256",
          "name": "sellerIndex",
          "type": "uint256"
        }
      ],
      "stateMutability": "view",
      "type": "function"
    },
    {
      "inputs": [
        {
          "internalType": "uint256",
          "name": "idToken",
          "type": "uint256"
        },
        {
          "internalType": "string",
          "name": "message",
          "type": "string"
        },
        {
          "internalType": "uint256",
          "name": "_price",
          "type": "uint256"
        },
        {
          "internalType": "address",
          "name": "_nftContract",
          "type": "address"
        }
      ],
      "name": "moveTokenForSell",
      "outputs": [],
      "stateMutability": "payable",
      "type": "function"
    },
    {
      "inputs": [
        {
          "internalType": "uint256",
          "name": "idToken",
          "type": "uint256"
        },
        {
          "internalType": "string",
          "name": "message",
          "type": "string"
        }
      ],
      "name": "removeTokenFromMarketPlace",
      "outputs": [],
      "stateMutability": "nonpayable",
      "type": "function"
    },
    {
      "inputs": [
        {
          "internalType": "uint256",
          "name": "_tokenId",
          "type": "uint256"
        },
        {
          "internalType": "address",
          "name": "owner",
          "type": "address"
        }
      ],
      "name": "getOwnerInfo",
      "outputs": [
        {
          "internalType": "string",
          "name": "balance",
          "type": "string"
        }
      ],
      "stateMutability": "view",
      "type": "function"
    }
  ],
  "bytecode": "0x6080604052655af3107a400060035534801561001a57600080fd5b506001600055600580546001600160a01b03191633179055612bf0806100416000396000f3fe60806040526004361061018f5760003560e01c806366417981116100d6578063b5540aa51161007f578063c922b17c11610059578063c922b17c146104c4578063cf107b03146104d7578063f765a8801461059d57600080fd5b8063b5540aa514610462578063b6a12a511461048f578063b8fe6abe146104af57600080fd5b80639d0ec380116100b05780639d0ec380146103d8578063a7ccabdf14610405578063b0edf9a41461044257600080fd5b806366417981146103515780637b52ade6146103965780638d6cb3fb146103c357600080fd5b80631f4cc4db116101385780633ccfd60b116101125780633ccfd60b146102fc578063443e2037146103115780635cdfd1e41461033157600080fd5b80631f4cc4db146102be5780632b86ae38146102d357806331aa011d146102e957600080fd5b806314bb9abe1161016957806314bb9abe14610243578063195b09de1461026357806319c4ab291461029e57600080fd5b8063030b4f4e146101d357806303965f62146101e8578063047b07bf1461022157600080fd5b366101ce57604080513381523460208201527f7e71433ddf847725166244795048ecf3e3f9f35628254ecbf736056664233493910160405180910390a1005b600080fd5b6101e66101e136600461250c565b6105ca565b005b3480156101f457600080fd5b5061020861020336600461256f565b610968565b60405161021894939291906125e9565b60405180910390f35b34801561022d57600080fd5b50610236610acc565b604051610218919061262e565b34801561024f57600080fd5b506101e661025e3660046126c2565b610cba565b34801561026f57600080fd5b5061029061027e3660046126c2565b60009081526008602052604090205490565b604051908152602001610218565b3480156102aa57600080fd5b506101e66102b93660046126c2565b610e5d565b3480156102ca57600080fd5b50610236611000565b3480156102df57600080fd5b5061029060035481565b6101e66102f73660046126db565b611242565b34801561030857600080fd5b506101e6611510565b34801561031d57600080fd5b506101e661032c36600461275d565b6115b1565b34801561033d57600080fd5b506101e661034c3660046127a4565b6115f0565b34801561035d57600080fd5b5061037161036c36600461256f565b611a53565b604080516001600160a01b039094168452602084019290925290820152606001610218565b3480156103a257600080fd5b506103b66103b13660046126c2565b611a9f565b6040516102189190612811565b3480156103cf57600080fd5b50610236611c4e565b3480156103e457600080fd5b506103f86103f33660046126c2565b611de3565b60405161021891906128b6565b34801561041157600080fd5b506101e6610420366004612918565b600480546001600160a01b0319166001600160a01b0392909216919091179055565b34801561044e57600080fd5b5061029061045d366004612935565b611e65565b34801561046e57600080fd5b5061029061047d3660046126c2565b60009081526007602052604090205490565b34801561049b57600080fd5b506102906104aa366004612935565b611ee8565b3480156104bb57600080fd5b50600354610290565b6101e66104d2366004612965565b611f62565b3480156104e357600080fd5b506105906104f23660046126c2565b6040805160c081018252600080825260208201819052918101829052606081018290526080810182905260a081019190915250600090815260066020908152604091829020825160c08101845281546001600160a01b039081168252600183015493820193909352600282015483169381019390935260038101549091166060830152600481015460808301526005015460ff16151560a082015290565b604051610218919061299a565b3480156105a957600080fd5b506105bd6105b8366004612935565b612140565b60405161021891906129ee565b6105d2612202565b60035434146106285760405162461bcd60e51b815260206004820181905260248201527f4e6f7420656e6f75676820657468657220666f72206c697374696e672066656560448201526064015b60405180910390fd5b600480546040516331a9108f60e11b81529182018690526000916001600160a01b0390911690636352211e90602401602060405180830381865afa158015610674573d6000803e3d6000fd5b505050506040513d601f19601f820116820180604052508101906106989190612a01565b90506001600160a01b03811633146106fc5760405162461bcd60e51b815260206004820152602160248201527f546865206164647265737320686173206e6f74206f776e2074686520746f6b656044820152603760f91b606482015260840161061f565b61070a600280546001019055565b6040518060c00160405280836001600160a01b03168152602001868152602001336001600160a01b03168152602001336001600160a01b03168152602001848152602001600115158152506006600087815260200190815260200160002060008201518160000160006101000a8154816001600160a01b0302191690836001600160a01b031602179055506020820151816001015560408201518160020160006101000a8154816001600160a01b0302191690836001600160a01b0316021790555060608201518160030160006101000a8154816001600160a01b0302191690836001600160a01b031602179055506080820151816004015560a08201518160050160006101000a81548160ff0219169083151502179055509050507fa0c6c0d02d86fdacecbaa5fdf5894bab204e31a778250474108540733a9b8d19828633338760405161088b9594939291906001600160a01b039586168152602081019490945291841660408401529092166060820152608081019190915260a00190565b60405180910390a1600085815260086020908152604091829020825160608101909352338352919081016108c242620f424061225b565b81526000602091820181905283546001808201865594825290829020835160039092020180546001600160a01b0319166001600160a01b039092169190911781559082015192810192909255604090810151600290920191909155517fa621f3c578ccec4c2281ee2f069b7f0f599322063cd5237b5583fd654051e0ae9061094f90879033908890612a1e565b60405180910390a1506109626001600055565b50505050565b6007602052816000526040600020818154811061098457600080fd5b6000918252602090912060049091020180546001820180546001600160a01b0390921694509192506109b590612a4f565b80601f01602080910402602001604051908101604052809291908181526020018280546109e190612a4f565b8015610a2e5780601f10610a0357610100808354040283529160200191610a2e565b820191906000526020600020905b815481529060010190602001808311610a1157829003601f168201915b505050505090806002015490806003018054610a4990612a4f565b80601f0160208091040260200160405190810160405280929190818152602001828054610a7590612a4f565b8015610ac25780601f10610a9757610100808354040283529160200191610ac2565b820191906000526020600020905b815481529060010190602001808311610aa557829003601f168201915b5050505050905084565b60606000610ad960025490565b90506000805b82811015610b39573360066000610af7846001612a9f565b81526020810191909152604001600020600301546001600160a01b031603610b275781610b2381612ab7565b9250505b80610b3181612ab7565b915050610adf565b5060008167ffffffffffffffff811115610b5557610b5561244b565b604051908082528060200260200182016040528015610bb557816020015b6040805160c08101825260008082526020808301829052928201819052606082018190526080820181905260a08201528252600019909201910181610b735790505b5090506000805b84811015610cb0573360066000610bd4846001612a9f565b81526020810191909152604001600020600301546001600160a01b031603610c9e5760066000610c05836001612a9f565b81526020808201929092526040908101600020815160c08101835281546001600160a01b0390811682526001830154948201949094526002820154841692810192909252600381015490921660608201526004820154608082015260059091015460ff16151560a08201528351849084908110610c8457610c84612ad0565b60200260200101819052508180610c9a90612ab7565b9250505b80610ca881612ab7565b915050610bbc565b5090949350505050565b6000610cc68233611ee8565b6000838152600760205260408120805492935090918291339185908110610cef57610cef612ad0565b90600052602060002090600402016002015460405160006040518083038185875af1925050503d8060008114610d41576040519150601f19603f3d011682016040523d82523d6000602084013e610d46565b606091505b509150915081610d985760405162461bcd60e51b815260206004820152601860248201527f4661696c656420746f2077697468647261772045746865720000000000000000604482015260640161061f565b7f98ccdb6ca1b391b9d00c4b39b242ef445e5d59bd02b7ae2687c2ed3e6cc994f08433600760008881526020019081526020016000208681548110610ddf57610ddf612ad0565b906000526020600020906004020160020154604051610e1a939291909283526001600160a01b03919091166020830152604082015260600190565b60405180910390a16000848152600760205260408120805485908110610e4257610e42612ad0565b90600052602060002090600402016002018190555050505050565b6000610e698233611e65565b6000838152600860205260408120805492935090918291339185908110610e9257610e92612ad0565b90600052602060002090600302016002015460405160006040518083038185875af1925050503d8060008114610ee4576040519150601f19603f3d011682016040523d82523d6000602084013e610ee9565b606091505b509150915081610f3b5760405162461bcd60e51b815260206004820152601860248201527f4661696c656420746f2077697468647261772045746865720000000000000000604482015260640161061f565b7fc18f79f69c42ef161d163d5c4c1f3264b416f96d4e2a6ce5b3fbbaa7d826d94a8433600860008881526020019081526020016000208681548110610f8257610f82612ad0565b906000526020600020906003020160020154604051610fbd939291909283526001600160a01b03919091166020830152604082015260600190565b60405180910390a16000848152600860205260408120805485908110610fe557610fe5612ad0565b90600052602060002090600302016002018190555050505050565b6060600061100d60025490565b90506000805b8281101561109c57336006600061102b846001612a9f565b81526020810191909152604001600020600201546001600160a01b031614801561107757506006600061105f836001612a9f565b815260208101919091526040016000206005015460ff165b1561108a578161108681612ab7565b9250505b8061109481612ab7565b915050611013565b5060008167ffffffffffffffff8111156110b8576110b861244b565b60405190808252806020026020018201604052801561111857816020015b6040805160c08101825260008082526020808301829052928201819052606082018190526080820181905260a082015282526000199092019101816110d65790505b5090506000805b84811015610cb0573360066000611137846001612a9f565b81526020810191909152604001600020600201546001600160a01b031614801561118357506006600061116b836001612a9f565b815260208101919091526040016000206005015460ff165b156112305760066000611197836001612a9f565b81526020808201929092526040908101600020815160c08101835281546001600160a01b0390811682526001830154948201949094526002820154841692810192909252600381015490921660608201526004820154608082015260059091015460ff16151560a0820152835184908490811061121657611216612ad0565b6020026020010181905250818061122c90612ab7565b9250505b8061123a81612ab7565b91505061111f565b346000036112925760405162461bcd60e51b815260206004820152601c60248201527f596f757220626574206d757374206265206d6f7265207468616e203000000000604482015260640161061f565b60035434116040516020016112f0907f596f757220626574206d757374206265206d6f7265207468616e20636f6e747281527f6163742066656500000000000000000000000000000000000000000000000000602082015260270190565b6040516020818303038152906040529061131d5760405162461bcd60e51b815260040161061f91906129ee565b50600061132a8584611ee8565b6000868152600760205260409020549091501580159061138d5750600085815260076020526040902080546001600160a01b03851691908390811061137157611371612ad0565b60009182526020909120600490910201546001600160a01b0316145b1561141857600085815260076020526040812080546113d8913491859081106113b8576113b8612ad0565b90600052602060002090600402016002015461225b90919063ffffffff16565b600087815260076020526040902080549192508291849081106113fd576113fd612ad0565b906000526020600020906004020160020181905550506114c2565b600085815260076020908152604080832081516080810183526001600160a01b0388811682528185018a815234948301949094526060820188905282546001808201855593875295859020825160049097020180546001600160a01b031916969091169590951785559151805192949361149893928501929101906123b2565b5060408201516002820155606082015180516114be9160038401916020909101906123b2565b5050505b604080518681526001600160a01b0385166020820152348183015290517fdf69adb2dfb31a73e8980f500a6d69055d1debc3dd097c87db248299e486219f9181900360600190a15050505050565b6005546001600160a01b031633146115755760405162461bcd60e51b815260206004820152602260248201527f4f6e6c7920746865206f776e65722063616e2077697468647261772065746865604482015261727360f01b606482015260840161061f565b6005546040516001600160a01b03909116904780156108fc02916000818181858888f193505050501580156115ae573d6000803e3d6000fd5b50565b7fa621f3c578ccec4c2281ee2f069b7f0f599322063cd5237b5583fd654051e0ae8233836040516115e493929190612a1e565b60405180910390a15050565b60006115fc8484611ee8565b9050600061160a8533611e65565b6003546000878152600760205260408120805493945090928590811061163257611632612ad0565b90600052602060002090600402016002015461164e9190612ae6565b6004805460405163308549a360e21b81529293506001600160a01b03169163c215268c916116829189918b918a9101612afd565b600060405180830381600087803b15801561169c57600080fd5b505af11580156116b0573d6000803e3d6000fd5b50505060008781526006602090815260408083206002810180546001600160a01b03199081166001600160a01b038d811691821790935560038401805490921617905560058201805460ff1916600117905560048083018890555460079094529190932080549394507fa0c6c0d02d86fdacecbaa5fdf5894bab204e31a778250474108540733a9b8d199392909116918a918a918291908a90811061175757611757612ad0565b9060005260206000209060040201600201546040516117a89594939291906001600160a01b039586168152602081019490945291841660408401529092166060820152608081019190915260a00190565b60405180910390a1600087815260086020526040902080546117f6918491869081106117d6576117d6612ad0565b90600052602060002090600302016002015461225b90919063ffffffff16565b600088815260086020526040902080548590811061181657611816612ad0565b906000526020600020906003020160020181905550600060076000898152602001908152602001600020858154811061185157611851612ad0565b906000526020600020906004020160020181905550600860008881526020019081526020016000206040518060600160405280886001600160a01b031681526020016118a9620f42404261225b90919063ffffffff16565b8152600060209182018190528354600180820186559482528282208451600392830290910180546001600160a01b0319166001600160a01b039283161781559385015195840195909555604093840151600290930192909255600554915492517f466565207472616e73666572656420746f206f776e65720000000000000000008152909384939216919060170160006040518083038185875af1925050503d8060008114611974576040519150601f19603f3d011682016040523d82523d6000602084013e611979565b606091505b5091509150816119cb5760405162461bcd60e51b815260206004820152601460248201527f5472616e7366657220666565206661696c65642e000000000000000000000000604482015260640161061f565b60035460408051918252602082018b90527ffea45ce51f673dc5b65fb0de21f3d35bae08eb1812c826b4d98c86c147db718c910160405180910390a1604080518a81526001600160a01b038a1660208201527f4c5d8ccfd4f32dad0c449108334c94e0bada87b1453ad71e79e233545f4c48a6910160405180910390a1505050505050505050565b60086020528160005260406000208181548110611a6f57600080fd5b60009182526020909120600390910201805460018201546002909201546001600160a01b03909116935090915083565b60008181526007602090815260408083208054825181850281018501909352808352606094919384929084015b82821015611c4257600084815260209081902060408051608081019091526004850290910180546001600160a01b031682526001810180549293919291840191611b1590612a4f565b80601f0160208091040260200160405190810160405280929190818152602001828054611b4190612a4f565b8015611b8e5780601f10611b6357610100808354040283529160200191611b8e565b820191906000526020600020905b815481529060010190602001808311611b7157829003601f168201915b5050505050815260200160028201548152602001600382018054611bb190612a4f565b80601f0160208091040260200160405190810160405280929190818152602001828054611bdd90612a4f565b8015611c2a5780601f10611bff57610100808354040283529160200191611c2a565b820191906000526020600020905b815481529060010190602001808311611c0d57829003601f168201915b50505050508152505081526020019060010190611acc565b50505050915050919050565b60606000611c5b60025490565b90506000611c6860015490565b611c729083612ae6565b905060008167ffffffffffffffff811115611c8f57611c8f61244b565b604051908082528060200260200182016040528015611cef57816020015b6040805160c08101825260008082526020808301829052928201819052606082018190526080820181905260a08201528252600019909201910181611cad5790505b5090506000805b84811015610cb05760066000611d0d836001612a9f565b815260208101919091526040016000206005015460ff1615611dd15760066000611d38836001612a9f565b81526020808201929092526040908101600020815160c08101835281546001600160a01b0390811682526001830154948201949094526002820154841692810192909252600381015490921660608201526004820154608082015260059091015460ff16151560a08201528351849084908110611db757611db7612ad0565b60200260200101819052508180611dcd90612ab7565b9250505b80611ddb81612ab7565b915050611cf6565b60008181526008602090815260408083208054825181850281018501909352808352606094919384929084015b82821015611c42576000848152602090819020604080516060810182526003860290920180546001600160a01b0316835260018082015484860152600290910154918301919091529083529092019101611e10565b600082815260086020526040812054815b81811015611edf57600085815260086020526040902080546001600160a01b038616919083908110611eaa57611eaa612ad0565b60009182526020909120600390910201546001600160a01b031603611ecd578092505b80611ed781612ab7565b915050611e76565b50505b92915050565b600082815260076020526040812054815b81811015611edf57600085815260076020526040902080546001600160a01b038616919083908110611f2d57611f2d612ad0565b60009182526020909120600490910201546001600160a01b031603611f50578092505b80611f5a81612ab7565b915050611ef9565b611f6a612202565b60008111611fba5760405162461bcd60e51b815260206004820152601c60248201527f5072696365206d757374206265206174206c6561737420312077656900000000604482015260640161061f565b600354341461200b5760405162461bcd60e51b815260206004820181905260248201527f4e6f7420656e6f75676820657468657220666f72206c697374696e6720666565604482015260640161061f565b612019600280546001019055565b6040805160c0810182526001600160a01b0380861682526020808301868152338486018181526060860182815260808701898152600160a0890181815260008d81526006909852968a9020985189549089166001600160a01b0319918216178a5595519089015591516002880180549188169186169190911790555160038701805491909616931692909217909355516004840155516005909201805492151560ff199093169290921790915590517fa0c6c0d02d86fdacecbaa5fdf5894bab204e31a778250474108540733a9b8d19916121299186918691309087906001600160a01b039586168152602081019490945291841660408401529092166060820152608081019190915260a00190565b60405180910390a161213b6001600055565b505050565b600082815260086020526040812080546060925b818110156121f957846001600160a01b031683828154811061217857612178612ad0565b60009182526020909120600390910201546001600160a01b0316036121e757836121c48483815481106121ad576121ad612ad0565b90600052602060002090600302016002015461226e565b6040516020016121d5929190612b25565b60405160208183030381529060405293505b806121f181612ab7565b915050612154565b50505092915050565b6002600054036122545760405162461bcd60e51b815260206004820152601f60248201527f5265656e7472616e637947756172643a207265656e7472616e742063616c6c00604482015260640161061f565b6002600055565b60006122678284612a9f565b9392505050565b6060816000036122955750506040805180820190915260018152600360fc1b602082015290565b8160005b81156122bf57806122a981612ab7565b91506122b89050600a83612b54565b9150612299565b60008167ffffffffffffffff8111156122da576122da61244b565b6040519080825280601f01601f191660200182016040528015612304576020820181803683370190505b509050815b85156123a95761231a600182612ae6565b90506000612329600a88612b54565b61233490600a612b76565b61233e9088612ae6565b612349906030612b95565b905060008160f81b90508084848151811061236657612366612ad0565b60200101907effffffffffffffffffffffffffffffffffffffffffffffffffffffffffffff1916908160001a9053506123a0600a89612b54565b97505050612309565b50949350505050565b8280546123be90612a4f565b90600052602060002090601f0160209004810192826123e05760008555612426565b82601f106123f957805160ff1916838001178555612426565b82800160010185558215612426579182015b8281111561242657825182559160200191906001019061240b565b50612432929150612436565b5090565b5b808211156124325760008155600101612437565b634e487b7160e01b600052604160045260246000fd5b600067ffffffffffffffff8084111561247c5761247c61244b565b604051601f8501601f19908116603f011681019082821181831017156124a4576124a461244b565b816040528093508581528686860111156124bd57600080fd5b858560208301376000602087830101525050509392505050565b600082601f8301126124e857600080fd5b61226783833560208501612461565b6001600160a01b03811681146115ae57600080fd5b6000806000806080858703121561252257600080fd5b84359350602085013567ffffffffffffffff81111561254057600080fd5b61254c878288016124d7565b935050604085013591506060850135612564816124f7565b939692955090935050565b6000806040838503121561258257600080fd5b50508035926020909101359150565b60005b838110156125ac578181015183820152602001612594565b838111156109625750506000910152565b600081518084526125d5816020860160208601612591565b601f01601f19169290920160200192915050565b6001600160a01b038516815260806020820152600061260b60808301866125bd565b846040840152828103606084015261262381856125bd565b979650505050505050565b6020808252825182820181905260009190848201906040850190845b818110156126b6576126a38385516001600160a01b0380825116835260208201516020840152806040830151166040840152806060830151166060840152506080810151608083015260a0810151151560a08301525050565b9284019260c0929092019160010161264a565b50909695505050505050565b6000602082840312156126d457600080fd5b5035919050565b600080600080608085870312156126f157600080fd5b84359350602085013567ffffffffffffffff8082111561271057600080fd5b61271c888389016124d7565b94506040870135915061272e826124f7565b9092506060860135908082111561274457600080fd5b50612751878288016124d7565b91505092959194509250565b6000806040838503121561277057600080fd5b82359150602083013567ffffffffffffffff81111561278e57600080fd5b61279a858286016124d7565b9150509250929050565b6000806000606084860312156127b957600080fd5b8335925060208401356127cb816124f7565b9150604084013567ffffffffffffffff8111156127e757600080fd5b8401601f810186136127f857600080fd5b61280786823560208401612461565b9150509250925092565b60006020808301818452808551808352604092508286019150828160051b87010184880160005b838110156128a857603f19898403018552815160806001600160a01b03825116855288820151818a87015261286f828701826125bd565b91505087820151888601526060808301519250858203818701525061289481836125bd565b968901969450505090860190600101612838565b509098975050505050505050565b602080825282518282018190526000919060409081850190868401855b8281101561290b57815180516001600160a01b03168552868101518786015285015185850152606090930192908501906001016128d3565b5091979650505050505050565b60006020828403121561292a57600080fd5b8135612267816124f7565b6000806040838503121561294857600080fd5b82359150602083013561295a816124f7565b809150509250929050565b60008060006060848603121561297a57600080fd5b8335612985816124f7565b95602085013595506040909401359392505050565b60c08101611ee282846001600160a01b0380825116835260208201516020840152806040830151166040840152806060830151166060840152506080810151608083015260a0810151151560a08301525050565b60208152600061226760208301846125bd565b600060208284031215612a1357600080fd5b8151612267816124f7565b8381526001600160a01b0383166020820152606060408201526000612a4660608301846125bd565b95945050505050565b600181811c90821680612a6357607f821691505b602082108103612a8357634e487b7160e01b600052602260045260246000fd5b50919050565b634e487b7160e01b600052601160045260246000fd5b60008219821115612ab257612ab2612a89565b500190565b600060018201612ac957612ac9612a89565b5060010190565b634e487b7160e01b600052603260045260246000fd5b600082821015612af857612af8612a89565b500390565b6001600160a01b0384168152826020820152606060408201526000612a4660608301846125bd565b60008351612b37818460208801612591565b835190830190612b4b818360208801612591565b01949350505050565b600082612b7157634e487b7160e01b600052601260045260246000fd5b500490565b6000816000190483118215151615612b9057612b90612a89565b500290565b600060ff821660ff84168060ff03821115612bb257612bb2612a89565b01939250505056fea2646970667358221220cb7db17c7dffba041b26a20d9ec7b1ee520683ec0f910e2df75dc791059682ff64736f6c634300080d0033",
  "immutableReferences": {},
  "source": "// SPDX-License-Identifier: MIT\npragma solidity ^0.8.13;\n\nimport \"@openzeppelin/contracts/utils/Counters.sol\";\nimport \"@openzeppelin/contracts/token/ERC721/ERC721.sol\";\nimport \"@openzeppelin/contracts/security/ReentrancyGuard.sol\";\nimport \"@openzeppelin/contracts/utils/math/SafeMath.sol\";\nimport \"@openzeppelin/contracts/utils/Strings.sol\";\nimport \"hardhat/console.sol\";\nimport \"./EncNft.sol\";\n\ncontract Marketplace is ReentrancyGuard {\n    using SafeMath for uint256;\n    using Counters for Counters.Counter;\n    Counters.Counter private _nftsSold;\n    Counters.Counter private _nftCount;\n    uint256 public LISTING_FEE = 0.0001 ether;\n    ENCNFT encNftContract;\n    address payable private _marketOwner;\n    mapping(uint256 => NFT) private _idToNFT;\n    struct NFT {\n        address nftContract;\n        uint256 tokenId;\n        address payable seller;\n        address payable owner;\n        uint256 price;\n        bool listed;\n    }\n    event NFTListed(\n        address nftContract,\n        uint256 tokenId,\n        address seller,\n        address owner,\n        uint256 price\n    );\n    event NFTSold(\n        address nftContract,\n        uint256 tokenId,\n        address seller,\n        address owner,\n        uint256 price\n    );\n\n    struct BuyerData {\n        address buyerAddress;\n        string buyerPublicKey;\n        uint256 buyerBet;\n        string goalOfPurchase;\n    }\n\n    struct SellerData {\n        address sellerAddress;\n        uint256 deadline;\n        uint256 sellerSum;\n    }\n    mapping(uint256 => BuyerData[]) public buyersBoard; // to do private\n    mapping(uint256 => SellerData[]) public sellersBoard; // to do private\n\n    event NewOwner(uint256 idToken, address buyerAddress);\n    event TokenForSell(uint256 idToken, address buyerAddress, string message);\n    event BuyerMadeBet(uint256 idToken, address buyerAddress, uint256 bet);\n    event BuyerWithdrewBet(uint256 idToken, address buyerAddress, uint256 bet);\n    event ValueReceived(address sender, uint256 value);\n    event FeeReceived(uint256 feeValue, uint256 nftId);\n    event sellerWithdrewSum(\n        uint256 idToken,\n        address sellerAddress,\n        uint256 sum\n    );\n\n    constructor() {\n        _marketOwner = payable(msg.sender);\n    }\n\n    function setNFTContract(address _nftContract) public {\n        encNftContract = ENCNFT(_nftContract);\n    }\n\n    function listNft(\n        address _nftContract,\n        uint256 _tokenId,\n        uint256 _price\n    ) public payable nonReentrant {\n        require(_price > 0, \"Price must be at least 1 wei\");\n        require(msg.value == LISTING_FEE, \"Not enough ether for listing fee\");\n\n        _nftCount.increment();\n\n        _idToNFT[_tokenId] = NFT(\n            _nftContract,\n            _tokenId,\n            payable(msg.sender),\n            payable(msg.sender),\n            _price,\n            true\n        );\n\n        emit NFTListed(\n            _nftContract,\n            _tokenId,\n            msg.sender,\n            address(this),\n            _price\n        );\n    }\n\n    receive() external payable {\n        emit ValueReceived(msg.sender, msg.value);\n    }\n\n    function withdraw() public {\n        require(\n            msg.sender == _marketOwner,\n            \"Only the owner can withdraw ethers\"\n        );\n        _marketOwner.transfer(address(this).balance);\n    }\n\n    function getListingFee() public view returns (uint256) {\n        return LISTING_FEE;\n    }\n\n    function getListedNfts() public view returns (NFT[] memory) {\n        uint256 nftCount = _nftCount.current();\n        uint256 unsoldNftsCount = nftCount - _nftsSold.current();\n\n        NFT[] memory nfts = new NFT[](unsoldNftsCount);\n        uint nftsIndex = 0;\n        for (uint i = 0; i < nftCount; i++) {\n            if (_idToNFT[i + 1].listed) {\n                nfts[nftsIndex] = _idToNFT[i + 1];\n                nftsIndex++;\n            }\n        }\n        return nfts;\n    }\n\n    function getMyNfts() public view returns (NFT[] memory) {\n        uint nftCount = _nftCount.current();\n        uint myNftCount = 0;\n        for (uint i = 0; i < nftCount; i++) {\n            if (_idToNFT[i + 1].owner == msg.sender) {\n                myNftCount++;\n            }\n        }\n\n        NFT[] memory nfts = new NFT[](myNftCount);\n        uint nftsIndex = 0;\n        for (uint i = 0; i < nftCount; i++) {\n            if (_idToNFT[i + 1].owner == msg.sender) {\n                nfts[nftsIndex] = _idToNFT[i + 1];\n                nftsIndex++;\n            }\n        }\n        return nfts;\n    }\n\n    function getMyListedNft(uint256 nftId) public view returns (NFT memory) {\n        return _idToNFT[nftId];\n    }\n\n    function getMyListedNfts() public view returns (NFT[] memory) {\n        uint nftCount = _nftCount.current();\n        uint myListedNftCount = 0;\n        for (uint i = 0; i < nftCount; i++) {\n            if (\n                _idToNFT[i + 1].seller == msg.sender && _idToNFT[i + 1].listed\n            ) {\n                myListedNftCount++;\n            }\n        }\n\n        NFT[] memory nfts = new NFT[](myListedNftCount);\n        uint nftsIndex = 0;\n        for (uint i = 0; i < nftCount; i++) {\n            if (\n                _idToNFT[i + 1].seller == msg.sender && _idToNFT[i + 1].listed\n            ) {\n                nfts[nftsIndex] = _idToNFT[i + 1];\n                nftsIndex++;\n            }\n        }\n        return nfts;\n    }\n\n    function makeBet(\n        uint256 idToken,\n        string memory buyerPublicKey,\n        address buyerAddress,\n        string memory goalPurchase\n    ) public payable {\n        require(msg.value != 0, \"Your bet must be more than 0\");\n        require(\n            msg.value > LISTING_FEE,\n            string(abi.encodePacked(\"Your bet must be more than contract fee\"))\n        );\n        uint256 buyerIndex = getBuyerIndex(idToken, buyerAddress);\n\n        if (\n            buyersBoard[idToken].length > 0 &&\n            buyersBoard[idToken][buyerIndex].buyerAddress == buyerAddress\n        ) {\n            uint256 newBet = buyersBoard[idToken][buyerIndex].buyerBet.add(\n                msg.value\n            );\n            buyersBoard[idToken][buyerIndex].buyerBet = newBet;\n        } else {\n            buyersBoard[idToken].push(\n                BuyerData({\n                    buyerAddress: buyerAddress,\n                    buyerPublicKey: buyerPublicKey,\n                    buyerBet: msg.value,\n                    goalOfPurchase: goalPurchase\n                })\n            );\n        }\n        emit BuyerMadeBet(idToken, buyerAddress, msg.value);\n    }\n\n    function getSellerById(\n        uint256 idToken\n    ) public view returns (SellerData[] memory) {\n        SellerData[] storage sellers = sellersBoard[idToken];\n        return sellers;\n    }\n\n    function getCountSellers(uint256 idToken) public view returns (uint256) {\n        return sellersBoard[idToken].length;\n    }\n\n    function getCountBuyers(uint256 idToken) public view returns (uint256) {\n        return buyersBoard[idToken].length;\n    }\n\n    function getBuyersById(\n        uint256 idToken\n    ) public view returns (BuyerData[] memory) {\n        BuyerData[] storage buyers = buyersBoard[idToken];\n        return buyers;\n    }\n\n    function buyerWithdrawBet(uint256 idToken) public {\n        uint256 buyerIndex = getBuyerIndex(idToken, msg.sender);\n        (bool succeed, bytes memory data) = msg.sender.call{\n            value: buyersBoard[idToken][buyerIndex].buyerBet\n        }(\"\");\n        require(succeed, \"Failed to withdraw Ether\");\n        emit BuyerWithdrewBet(\n            idToken,\n            msg.sender,\n            buyersBoard[idToken][buyerIndex].buyerBet\n        );\n        buyersBoard[idToken][buyerIndex].buyerBet = 0;\n    }\n\n    function sellerWithdrawSum(uint256 idToken) public {\n        uint256 sellerIndex = getSellerIndex(idToken, msg.sender);\n        (bool succeed, bytes memory data) = msg.sender.call{\n            value: sellersBoard[idToken][sellerIndex].sellerSum\n        }(\"\");\n        require(succeed, \"Failed to withdraw Ether\");\n        emit sellerWithdrewSum(\n            idToken,\n            msg.sender,\n            sellersBoard[idToken][sellerIndex].sellerSum\n        );\n        sellersBoard[idToken][sellerIndex].sellerSum = 0;\n    }\n\n    function acceptRateAndTransferToken(\n        uint256 idToken,\n        address buyerAddress,\n        bytes memory data\n    ) public {\n        uint256 buyerIndex = getBuyerIndex(idToken, buyerAddress);\n        uint256 sellerIndex = getSellerIndex(idToken, msg.sender);\n        uint256 pureBet = buyersBoard[idToken][buyerIndex].buyerBet -\n            LISTING_FEE;\n        encNftContract.transferTokenWithEncryption(buyerAddress, idToken, data);\n        NFT storage nft = _idToNFT[idToken];\n        nft.seller = payable(buyerAddress);\n        nft.owner = payable(buyerAddress);\n        nft.listed = true;\n        nft.price = pureBet;\n\n        emit NFTListed(\n            address(encNftContract),\n            idToken,\n            buyerAddress,\n            buyerAddress,\n            buyersBoard[idToken][buyerIndex].buyerBet\n        );\n\n        sellersBoard[idToken][sellerIndex].sellerSum = sellersBoard[idToken][\n            sellerIndex\n        ].sellerSum.add(pureBet);\n        buyersBoard[idToken][buyerIndex].buyerBet = 0;\n        sellersBoard[idToken].push(\n            SellerData({\n                sellerAddress: buyerAddress,\n                deadline: block.timestamp.add(10 ** 6),\n                sellerSum: 0\n            })\n        );\n        (bool success, bytes memory data) = _marketOwner.call{\n            value: LISTING_FEE\n        }(\"Fee transfered to owner\");\n        require(success, \"Transfer fee failed.\");\n        emit FeeReceived(LISTING_FEE, idToken);\n        emit NewOwner(idToken, buyerAddress);\n    }\n\n    function getBuyerIndex(\n        uint256 idToken,\n        address buyerAddress\n    ) public view returns (uint256 buyerIndex) {\n        uint256 length = buyersBoard[idToken].length;\n\n        for (uint256 index; index < length; index++) {\n            if (buyersBoard[idToken][index].buyerAddress == buyerAddress) {\n                buyerIndex = index;\n            }\n        }\n        return buyerIndex;\n    }\n\n    function getSellerIndex(\n        uint256 idToken,\n        address sellerAddress\n    ) public view returns (uint256 sellerIndex) {\n        uint256 length = sellersBoard[idToken].length;\n\n        for (uint256 index; index < length; index++) {\n            if (sellersBoard[idToken][index].sellerAddress == sellerAddress) {\n                sellerIndex = index;\n            }\n        }\n        return sellerIndex;\n    }\n\n    function moveTokenForSell(\n        uint256 idToken,\n        string memory message,\n        uint256 _price,\n        address _nftContract\n    ) public payable nonReentrant {\n        require(msg.value == LISTING_FEE, \"Not enough ether for listing fee\");\n        address currentOwner = encNftContract.ownerOf(idToken);\n        require(\n            currentOwner == msg.sender,\n            \"The address has not own the token\"\n        );\n        _nftCount.increment();\n\n        _idToNFT[idToken] = NFT(\n            _nftContract,\n            idToken,\n            payable(msg.sender),\n            payable(msg.sender),\n            _price,\n            true\n        );\n\n        emit NFTListed(_nftContract, idToken, msg.sender, msg.sender, _price);\n        sellersBoard[idToken].push(\n            SellerData({\n                sellerAddress: msg.sender,\n                deadline: block.timestamp.add(10 ** 6),\n                sellerSum: 0\n            })\n        );\n        emit TokenForSell(idToken, msg.sender, message);\n    }\n\n    function removeTokenFromMarketPlace(\n        uint256 idToken,\n        string memory message\n    ) public {\n        // to do for burn case\n        emit TokenForSell(idToken, msg.sender, message);\n    }\n\n    function getOwnerInfo(\n        uint256 _tokenId,\n        address owner\n    ) public view returns (string memory balance) {\n        SellerData[] storage allHistorySellersInfo = sellersBoard[_tokenId];\n        uint256 historyLength = allHistorySellersInfo.length;\n        for (uint256 ind; ind < historyLength; ind++) {\n            if (allHistorySellersInfo[ind].sellerAddress == owner) {\n                balance = string(\n                    abi.encodePacked(\n                        balance,\n                        uint2str(allHistorySellersInfo[ind].sellerSum)\n                    )\n                );\n            }\n        }\n        return balance;\n    }\n\n    function uint2str(\n        uint _i\n    ) internal pure returns (string memory _uintAsString) {\n        if (_i == 0) {\n            return \"0\";\n        }\n        uint j = _i;\n        uint len;\n        while (j != 0) {\n            len++;\n            j /= 10;\n        }\n        bytes memory bstr = new bytes(len);\n        uint k = len;\n        while (_i != 0) {\n            k = k - 1;\n            uint8 temp = (48 + uint8(_i - (_i / 10) * 10));\n            bytes1 b1 = bytes1(temp);\n            bstr[k] = b1;\n            _i /= 10;\n        }\n        return string(bstr);\n    }\n}\n",
  "sourcePath": "/home/dev/Documents/MY/HACKATHON/FANTOM/PromptMarketplace/contracts/ethereum/Marketplace.sol",
  "compiler": {
    "name": "solc",
    "version": "0.8.13+commit.abaa5c0e.Emscripten.clang"
  },
  "schemaVersion": "3.4.10",
  "updatedAt": "2023-03-08T09:23:42.828Z",
  "devdoc": {
    "kind": "dev",
    "methods": {},
    "version": 1
  },
  "userdoc": {
    "kind": "user",
    "methods": {},
    "version": 1
  }
}